S01000006275696C642F4D4F502E733139B9
S315200000000248854600F03AF8FEE7C04600C00120C7
S3152000001080B582B000AF0200FB1D1A70C0460B4BA4
S315200000201B889BB21A0080231340F8D0074AFB1D79
S315200000301B789BB29380FB1D1B780A2B02D10D20C7
S31520000040FFF7E6FFC046BD4602B080BD0010014066
S3152000005080B582B000AF786006E07B685A1C7A6073
S315200000601B781800FFF7D4FF7B681B78002BF4D190
S31520000070C046C046BD4602B080BDC04680B582B0EF
S3152000008000AF02237B6000231800BD4602B080BD6E
S70520000000DA
